{
    "contractName": "Articles",
    "abi": [
        {
            "inputs": [
                {
                    "internalType": "address",
                    "name": "usersContract",
                    "type": "address"
                }
            ],
            "stateMutability": "nonpayable",
            "type": "constructor"
        },
        {
            "anonymous": false,
            "inputs": [
                {
                    "indexed": true,
                    "internalType": "address",
                    "name": "owner",
                    "type": "address"
                },
                {
                    "indexed": true,
                    "internalType": "address",
                    "name": "approved",
                    "type": "address"
                },
                {
                    "indexed": true,
                    "internalType": "uint256",
                    "name": "tokenId",
                    "type": "uint256"
                }
            ],
            "name": "Approval",
            "type": "event"
        },
        {
            "anonymous": false,
            "inputs": [
                {
                    "indexed": true,
                    "internalType": "address",
                    "name": "owner",
                    "type": "address"
                },
                {
                    "indexed": true,
                    "internalType": "address",
                    "name": "operator",
                    "type": "address"
                },
                {
                    "indexed": false,
                    "internalType": "bool",
                    "name": "approved",
                    "type": "bool"
                }
            ],
            "name": "ApprovalForAll",
            "type": "event"
        },
        {
            "anonymous": false,
            "inputs": [
                {
                    "indexed": true,
                    "internalType": "uint256",
                    "name": "articleID",
                    "type": "uint256"
                }
            ],
            "name": "ArticleBanned",
            "type": "event"
        },
        {
            "anonymous": false,
            "inputs": [
                {
                    "indexed": true,
                    "internalType": "enum IUsers.Vote",
                    "name": "choice",
                    "type": "uint8"
                },
                {
                    "indexed": true,
                    "internalType": "uint256",
                    "name": "articleID",
                    "type": "uint256"
                },
                {
                    "indexed": true,
                    "internalType": "uint256",
                    "name": "userID",
                    "type": "uint256"
                }
            ],
            "name": "ImportanceVoted",
            "type": "event"
        },
        {
            "anonymous": false,
            "inputs": [
                {
                    "indexed": true,
                    "internalType": "address",
                    "name": "author",
                    "type": "address"
                },
                {
                    "indexed": true,
                    "internalType": "uint256",
                    "name": "articleID",
                    "type": "uint256"
                },
                {
                    "indexed": false,
                    "internalType": "string",
                    "name": "abstractCID",
                    "type": "string"
                }
            ],
            "name": "Published",
            "type": "event"
        },
        {
            "anonymous": false,
            "inputs": [
                {
                    "indexed": true,
                    "internalType": "address",
                    "name": "from",
                    "type": "address"
                },
                {
                    "indexed": true,
                    "internalType": "address",
                    "name": "to",
                    "type": "address"
                },
                {
                    "indexed": true,
                    "internalType": "uint256",
                    "name": "tokenId",
                    "type": "uint256"
                }
            ],
            "name": "Transfer",
            "type": "event"
        },
        {
            "anonymous": false,
            "inputs": [
                {
                    "indexed": true,
                    "internalType": "enum IUsers.Vote",
                    "name": "choice",
                    "type": "uint8"
                },
                {
                    "indexed": true,
                    "internalType": "uint256",
                    "name": "articleID",
                    "type": "uint256"
                },
                {
                    "indexed": true,
                    "internalType": "uint256",
                    "name": "userID",
                    "type": "uint256"
                }
            ],
            "name": "ValidityVoted",
            "type": "event"
        },
        {
            "inputs": [
                {
                    "internalType": "address",
                    "name": "to",
                    "type": "address"
                },
                {
                    "internalType": "uint256",
                    "name": "tokenId",
                    "type": "uint256"
                }
            ],
            "name": "approve",
            "outputs": [],
            "stateMutability": "nonpayable",
            "type": "function"
        },
        {
            "inputs": [
                {
                    "internalType": "uint256",
                    "name": "articleID",
                    "type": "uint256"
                }
            ],
            "name": "articleInfo",
            "outputs": [
                {
                    "components": [
                        {
                            "internalType": "bool",
                            "name": "contentBanned",
                            "type": "bool"
                        },
                        {
                            "internalType": "uint256",
                            "name": "id",
                            "type": "uint256"
                        },
                        {
                            "internalType": "int256",
                            "name": "validity",
                            "type": "int256"
                        },
                        {
                            "internalType": "int256",
                            "name": "importance",
                            "type": "int256"
                        },
                        {
                            "internalType": "address",
                            "name": "author",
                            "type": "address"
                        },
                        {
                            "internalType": "string",
                            "name": "abstractCID",
                            "type": "string"
                        },
                        {
                            "internalType": "string",
                            "name": "contentCID",
                            "type": "string"
                        },
                        {
                            "internalType": "address[]",
                            "name": "coAuthor",
                            "type": "address[]"
                        },
                        {
                            "internalType": "uint256[]",
                            "name": "comments",
                            "type": "uint256[]"
                        },
                        {
                            "internalType": "uint256[]",
                            "name": "reviews",
                            "type": "uint256[]"
                        }
                    ],
                    "internalType": "struct Articles.Article",
                    "name": "",
                    "type": "tuple"
                }
            ],
            "stateMutability": "view",
            "type": "function"
        },
        {
            "inputs": [
                {
                    "internalType": "address",
                    "name": "owner",
                    "type": "address"
                }
            ],
            "name": "balanceOf",
            "outputs": [
                {
                    "internalType": "uint256",
                    "name": "",
                    "type": "uint256"
                }
            ],
            "stateMutability": "view",
            "type": "function"
        },
        {
            "inputs": [
                {
                    "internalType": "uint256",
                    "name": "articleID",
                    "type": "uint256"
                }
            ],
            "name": "banArticle",
            "outputs": [
                {
                    "internalType": "bool",
                    "name": "",
                    "type": "bool"
                }
            ],
            "stateMutability": "nonpayable",
            "type": "function"
        },
        {
            "inputs": [],
            "name": "commentsAddress",
            "outputs": [
                {
                    "internalType": "address",
                    "name": "",
                    "type": "address"
                }
            ],
            "stateMutability": "view",
            "type": "function"
        },
        {
            "inputs": [
                {
                    "internalType": "uint256",
                    "name": "articleID",
                    "type": "uint256"
                },
                {
                    "internalType": "uint256",
                    "name": "commentID",
                    "type": "uint256"
                }
            ],
            "name": "fillCommentsArray",
            "outputs": [
                {
                    "internalType": "bool",
                    "name": "",
                    "type": "bool"
                }
            ],
            "stateMutability": "nonpayable",
            "type": "function"
        },
        {
            "inputs": [
                {
                    "internalType": "uint256",
                    "name": "articleID",
                    "type": "uint256"
                },
                {
                    "internalType": "uint256",
                    "name": "reviewID",
                    "type": "uint256"
                }
            ],
            "name": "fillReviewsArray",
            "outputs": [
                {
                    "internalType": "bool",
                    "name": "",
                    "type": "bool"
                }
            ],
            "stateMutability": "nonpayable",
            "type": "function"
        },
        {
            "inputs": [
                {
                    "internalType": "uint256",
                    "name": "tokenId",
                    "type": "uint256"
                }
            ],
            "name": "getApproved",
            "outputs": [
                {
                    "internalType": "address",
                    "name": "",
                    "type": "address"
                }
            ],
            "stateMutability": "view",
            "type": "function"
        },
        {
            "inputs": [
                {
                    "internalType": "address",
                    "name": "owner",
                    "type": "address"
                },
                {
                    "internalType": "address",
                    "name": "operator",
                    "type": "address"
                }
            ],
            "name": "isApprovedForAll",
            "outputs": [
                {
                    "internalType": "bool",
                    "name": "",
                    "type": "bool"
                }
            ],
            "stateMutability": "view",
            "type": "function"
        },
        {
            "inputs": [
                {
                    "internalType": "uint256",
                    "name": "articleID",
                    "type": "uint256"
                }
            ],
            "name": "isArticle",
            "outputs": [
                {
                    "internalType": "bool",
                    "name": "",
                    "type": "bool"
                }
            ],
            "stateMutability": "view",
            "type": "function"
        },
        {
            "inputs": [],
            "name": "name",
            "outputs": [
                {
                    "internalType": "string",
                    "name": "",
                    "type": "string"
                }
            ],
            "stateMutability": "view",
            "type": "function"
        },
        {
            "inputs": [
                {
                    "internalType": "uint256",
                    "name": "tokenId",
                    "type": "uint256"
                }
            ],
            "name": "ownerOf",
            "outputs": [
                {
                    "internalType": "address",
                    "name": "",
                    "type": "address"
                }
            ],
            "stateMutability": "view",
            "type": "function"
        },
        {
            "inputs": [
                {
                    "internalType": "address[]",
                    "name": "coAuthor",
                    "type": "address[]"
                },
                {
                    "internalType": "string",
                    "name": "abstractCID",
                    "type": "string"
                },
                {
                    "internalType": "string",
                    "name": "contentCID",
                    "type": "string"
                }
            ],
            "name": "publish",
            "outputs": [
                {
                    "internalType": "uint256",
                    "name": "",
                    "type": "uint256"
                }
            ],
            "stateMutability": "nonpayable",
            "type": "function"
        },
        {
            "inputs": [
                {
                    "internalType": "address",
                    "name": "from",
                    "type": "address"
                },
                {
                    "internalType": "address",
                    "name": "to",
                    "type": "address"
                },
                {
                    "internalType": "uint256",
                    "name": "tokenId",
                    "type": "uint256"
                }
            ],
            "name": "safeTransferFrom",
            "outputs": [],
            "stateMutability": "nonpayable",
            "type": "function"
        },
        {
            "inputs": [
                {
                    "internalType": "address",
                    "name": "from",
                    "type": "address"
                },
                {
                    "internalType": "address",
                    "name": "to",
                    "type": "address"
                },
                {
                    "internalType": "uint256",
                    "name": "tokenId",
                    "type": "uint256"
                },
                {
                    "internalType": "bytes",
                    "name": "_data",
                    "type": "bytes"
                }
            ],
            "name": "safeTransferFrom",
            "outputs": [],
            "stateMutability": "nonpayable",
            "type": "function"
        },
        {
            "inputs": [
                {
                    "internalType": "address",
                    "name": "operator",
                    "type": "address"
                },
                {
                    "internalType": "bool",
                    "name": "approved",
                    "type": "bool"
                }
            ],
            "name": "setApprovalForAll",
            "outputs": [],
            "stateMutability": "nonpayable",
            "type": "function"
        },
        {
            "inputs": [
                {
                    "internalType": "address",
                    "name": "reviews_",
                    "type": "address"
                },
                {
                    "internalType": "address",
                    "name": "comments_",
                    "type": "address"
                }
            ],
            "name": "setContracts",
            "outputs": [
                {
                    "internalType": "bool",
                    "name": "",
                    "type": "bool"
                }
            ],
            "stateMutability": "nonpayable",
            "type": "function"
        },
        {
            "inputs": [
                {
                    "internalType": "bytes4",
                    "name": "interfaceId",
                    "type": "bytes4"
                }
            ],
            "name": "supportsInterface",
            "outputs": [
                {
                    "internalType": "bool",
                    "name": "",
                    "type": "bool"
                }
            ],
            "stateMutability": "view",
            "type": "function"
        },
        {
            "inputs": [],
            "name": "symbol",
            "outputs": [
                {
                    "internalType": "string",
                    "name": "",
                    "type": "string"
                }
            ],
            "stateMutability": "view",
            "type": "function"
        },
        {
            "inputs": [
                {
                    "internalType": "uint256",
                    "name": "index",
                    "type": "uint256"
                }
            ],
            "name": "tokenByIndex",
            "outputs": [
                {
                    "internalType": "uint256",
                    "name": "",
                    "type": "uint256"
                }
            ],
            "stateMutability": "view",
            "type": "function"
        },
        {
            "inputs": [
                {
                    "internalType": "address",
                    "name": "owner",
                    "type": "address"
                },
                {
                    "internalType": "uint256",
                    "name": "index",
                    "type": "uint256"
                }
            ],
            "name": "tokenOfOwnerByIndex",
            "outputs": [
                {
                    "internalType": "uint256",
                    "name": "",
                    "type": "uint256"
                }
            ],
            "stateMutability": "view",
            "type": "function"
        },
        {
            "inputs": [
                {
                    "internalType": "uint256",
                    "name": "tokenId",
                    "type": "uint256"
                }
            ],
            "name": "tokenURI",
            "outputs": [
                {
                    "internalType": "string",
                    "name": "",
                    "type": "string"
                }
            ],
            "stateMutability": "view",
            "type": "function"
        },
        {
            "inputs": [],
            "name": "totalSupply",
            "outputs": [
                {
                    "internalType": "uint256",
                    "name": "",
                    "type": "uint256"
                }
            ],
            "stateMutability": "view",
            "type": "function"
        },
        {
            "inputs": [
                {
                    "internalType": "address",
                    "name": "from",
                    "type": "address"
                },
                {
                    "internalType": "address",
                    "name": "to",
                    "type": "address"
                },
                {
                    "internalType": "uint256",
                    "name": "tokenId",
                    "type": "uint256"
                }
            ],
            "name": "transferFrom",
            "outputs": [],
            "stateMutability": "nonpayable",
            "type": "function"
        },
        {
            "inputs": [
                {
                    "internalType": "enum IUsers.Vote",
                    "name": "choice",
                    "type": "uint8"
                },
                {
                    "internalType": "uint256",
                    "name": "articleID",
                    "type": "uint256"
                }
            ],
            "name": "voteImportance",
            "outputs": [
                {
                    "internalType": "bool",
                    "name": "",
                    "type": "bool"
                }
            ],
            "stateMutability": "nonpayable",
            "type": "function"
        },
        {
            "inputs": [
                {
                    "internalType": "enum IUsers.Vote",
                    "name": "choice",
                    "type": "uint8"
                },
                {
                    "internalType": "uint256",
                    "name": "articleID",
                    "type": "uint256"
                }
            ],
            "name": "voteValidity",
            "outputs": [
                {
                    "internalType": "bool",
                    "name": "",
                    "type": "bool"
                }
            ],
            "stateMutability": "nonpayable",
            "type": "function"
        }
    ],
    "bytecode": "60806040523480156200001157600080fd5b5060405162002e6438038062002e64833981016040819052620000349162000164565b604080518082018252600781526641727469636c6560c81b60208083019182528351808501909452600384526210549560ea1b9084015281519192916200007e91600091620000be565b50805162000094906001906020840190620000be565b5050600b80546001600160a01b0319166001600160a01b03939093169290921790915550620001d3565b828054620000cc9062000196565b90600052602060002090601f016020900481019282620000f057600085556200013b565b82601f106200010b57805160ff19168380011785556200013b565b828001600101855582156200013b579182015b828111156200013b5782518255916020019190600101906200011e565b50620001499291506200014d565b5090565b5b808211156200014957600081556001016200014e565b6000602082840312156200017757600080fd5b81516001600160a01b03811681146200018f57600080fd5b9392505050565b600181811c90821680620001ab57607f821691505b60208210811415620001cd57634e487b7160e01b600052602260045260246000fd5b50919050565b612c8180620001e36000396000f3fe608060405234801561001057600080fd5b506004361061018e5760003560e01c806370a08231116100de578063c87b56dd11610097578063d8952a4911610071578063d8952a4914610358578063da6c5ea41461036b578063e985e9c51461038b578063f7be34be146103c757600080fd5b8063c87b56dd1461031f578063d1cbbe8f14610332578063d833e1761461034557600080fd5b806370a08231146102b8578063799ac390146102cb57806395d89b41146102de57806398f7757e146102e6578063a22cb465146102f9578063b88d4fde1461030c57600080fd5b806323b872dd1161014b5780632f745c59116101255780632f745c591461026c57806342842e0e1461027f5780634f6ccce7146102925780636352211e146102a557600080fd5b806323b872dd1461023557806325a7c03d14610248578063290a21911461025b57600080fd5b806301ffc9a71461019357806306fdde03146101bb578063081812fc146101d0578063095ea7b3146101fb57806318160ddd146102105780631c56bf2814610222575b600080fd5b6101a66101a1366004612611565b6103da565b60405190151581526020015b60405180910390f35b6101c36103eb565b6040516101b291906127cd565b6101e36101de36600461266d565b61047d565b6040516001600160a01b0390911681526020016101b2565b61020e6102093660046124c9565b610517565b005b6008545b6040519081526020016101b2565b6101a661023036600461264b565b61062d565b61020e6102433660046123da565b6108dc565b6101a661025636600461269f565b61090d565b600d546001600160a01b03166101e3565b61021461027a3660046124c9565b6109b9565b61020e61028d3660046123da565b610a4f565b6102146102a036600461266d565b610a6a565b6101e36102b336600461266d565b610afd565b6102146102c6366004612367565b610b74565b6101a66102d936600461264b565b610bfb565b6101c3610eaa565b6102146102f43660046124f5565b610eb9565b61020e61030736600461249b565b611034565b61020e61031a36600461241b565b6110f9565b6101c361032d36600461266d565b611131565b6101a661034036600461269f565b611219565b6101a661035336600461266d565b6112c5565b6101a66103663660046123a1565b6112f4565b61037e61037936600461266d565b61139c565b6040516101b2919061291f565b6101a66103993660046123a1565b6001600160a01b03918216600090815260056020908152604080832093909416825291909152205460ff1690565b6101a66103d536600461266d565b61169b565b60006103e5826117cb565b92915050565b6060600080546103fa90612b21565b80601f016020809104026020016040519081016040528092919081815260200182805461042690612b21565b80156104735780601f1061044857610100808354040283529160200191610473565b820191906000526020600020905b81548152906001019060200180831161045657829003601f168201915b5050505050905090565b6000818152600260205260408120546001600160a01b03166104fb5760405162461bcd60e51b815260206004820152602c60248201527f4552433732313a20617070726f76656420717565727920666f72206e6f6e657860448201526b34b9ba32b73a103a37b5b2b760a11b60648201526084015b60405180910390fd5b506000908152600460205260409020546001600160a01b031690565b600061052282610afd565b9050806001600160a01b0316836001600160a01b031614156105905760405162461bcd60e51b815260206004820152602160248201527f4552433732313a20617070726f76616c20746f2063757272656e74206f776e656044820152603960f91b60648201526084016104f2565b336001600160a01b03821614806105ac57506105ac8133610399565b61061e5760405162461bcd60e51b815260206004820152603860248201527f4552433732313a20617070726f76652063616c6c6572206973206e6f74206f7760448201527f6e6572206e6f7220617070726f76656420666f7220616c6c000000000000000060648201526084016104f2565b61062883836117f0565b505050565b600b54604051634209fff160e01b81523360048201526000916001600160a01b031690634209fff19060240160206040518083038186803b15801561067157600080fd5b505afa158015610685573d6000803e3d6000fd5b505050506040513d601f19601f820116820180604052508101906106a991906125f4565b15156001146106ca5760405162461bcd60e51b81526004016104f290612832565b6106d3826112c5565b6106ef5760405162461bcd60e51b81526004016104f290612882565b600b5460405163249c5d8d60e21b81523360048201526000916001600160a01b03169063927176349060240160206040518083038186803b15801561073357600080fd5b505afa158015610747573d6000803e3d6000fd5b505050506040513d601f19601f8201168201806040525081019061076b9190612686565b6000818152600f6020908152604080832087845290915290205490915060ff16156107fe5760405162461bcd60e51b815260206004820152603860248201527f41727469636c65733a20796f7520616c726561647920766f7465206f6e20766160448201527f6c696469747920666f7220746869732061727469636c652e000000000000000060648201526084016104f2565b600184600181111561081257610812612bb7565b1415610845576000838152600e6020526040812060020180546001929061083a908490612a32565b9091555061086d9050565b6000838152600e60205260408120600201805460019290610867908490612a9f565b90915550505b6000818152600f602090815260408083208684529091529020805460ff191660019081179091558190849086908111156108a9576108a9612bb7565b6040517f15d5fa205357397aa72ea27a6ab96d568f9691b8a8cd9157f8904ecaa844a5ca90600090a45060019392505050565b6108e6338261185e565b6109025760405162461bcd60e51b81526004016104f2906128ce565b610628838383611955565b600d546000906001600160a01b031633146109905760405162461bcd60e51b815260206004820152603860248201527f41727469636c65733a20746869732066756e6374696f6e206973206f6e6c792060448201527f63616c6c61626c6520627920436f6d6d656e74732e736f6c000000000000000060648201526084016104f2565b506000918252600e60209081526040832060080180546001808201835591855291909320015590565b60006109c483610b74565b8210610a265760405162461bcd60e51b815260206004820152602b60248201527f455243373231456e756d657261626c653a206f776e657220696e646578206f7560448201526a74206f6620626f756e647360a81b60648201526084016104f2565b506001600160a01b03919091166000908152600660209081526040808320938352929052205490565b610628838383604051806020016040528060008152506110f9565b6000610a7560085490565b8210610ad85760405162461bcd60e51b815260206004820152602c60248201527f455243373231456e756d657261626c653a20676c6f62616c20696e646578206f60448201526b7574206f6620626f756e647360a01b60648201526084016104f2565b60088281548110610aeb57610aeb612be3565b90600052602060002001549050919050565b6000818152600260205260408120546001600160a01b0316806103e55760405162461bcd60e51b815260206004820152602960248201527f4552433732313a206f776e657220717565727920666f72206e6f6e657869737460448201526832b73a103a37b5b2b760b91b60648201526084016104f2565b60006001600160a01b038216610bdf5760405162461bcd60e51b815260206004820152602a60248201527f4552433732313a2062616c616e636520717565727920666f7220746865207a65604482015269726f206164647265737360b01b60648201526084016104f2565b506001600160a01b031660009081526003602052604090205490565b600b54604051634209fff160e01b81523360048201526000916001600160a01b031690634209fff19060240160206040518083038186803b158015610c3f57600080fd5b505afa158015610c53573d6000803e3d6000fd5b505050506040513d601f19601f82011682018060405250810190610c7791906125f4565b1515600114610c985760405162461bcd60e51b81526004016104f290612832565b610ca1826112c5565b610cbd5760405162461bcd60e51b81526004016104f290612882565b600b5460405163249c5d8d60e21b81523360048201526000916001600160a01b03169063927176349060240160206040518083038186803b158015610d0157600080fd5b505afa158015610d15573d6000803e3d6000fd5b505050506040513d601f19601f82011682018060405250810190610d399190612686565b600081815260106020908152604080832087845290915290205490915060ff1615610dcc5760405162461bcd60e51b815260206004820152603a60248201527f41727469636c65733a20796f7520616c726561647920766f7465206f6e20696d60448201527f706f7274616e636520666f7220746869732061727469636c652e00000000000060648201526084016104f2565b6001846001811115610de057610de0612bb7565b1415610e13576000838152600e60205260408120600301805460019290610e08908490612a32565b90915550610e3b9050565b6000838152600e60205260408120600301805460019290610e35908490612a9f565b90915550505b60008181526010602090815260408083208684529091529020805460ff19166001908117909155819084908690811115610e7757610e77612bb7565b6040517f919df28f66b523aaaed6e74a605bbfd4d4c0752b4e7d22568fac9ff16a4ac30e90600090a45060019392505050565b6060600180546103fa90612b21565b600b54604051634209fff160e01b81523360048201526000916001600160a01b031690634209fff19060240160206040518083038186803b158015610efd57600080fd5b505afa158015610f11573d6000803e3d6000fd5b505050506040513d601f19601f82011682018060405250810190610f3591906125f4565b1515600114610f565760405162461bcd60e51b81526004016104f290612832565b610f64600a80546001019055565b6000610f6f600a5490565b9050610f7b3382611b00565b6000818152600e602090815260409091206004810180546001600160a01b031916331790556001810183905586519091610fbc916007840191890190612201565b508451610fd29060058301906020880190612266565b508351610fe89060068301906020870190612266565b5081336001600160a01b03167ff11f50dfb4c5817081ff5de7ade880d2d1410cd72fc0370d52a49d6bc91b13808760405161102391906127cd565b60405180910390a350949350505050565b6001600160a01b03821633141561108d5760405162461bcd60e51b815260206004820152601960248201527f4552433732313a20617070726f766520746f2063616c6c65720000000000000060448201526064016104f2565b3360008181526005602090815260408083206001600160a01b03871680855290835292819020805460ff191686151590811790915590519081529192917f17307eab39ab6107e8899845ad3d59bd9653f200f220920489ca2b5937696c31910160405180910390a35050565b611103338361185e565b61111f5760405162461bcd60e51b81526004016104f2906128ce565b61112b84848484611b1e565b50505050565b6000818152600260205260409020546060906001600160a01b03166111b05760405162461bcd60e51b815260206004820152602f60248201527f4552433732314d657461646174613a2055524920717565727920666f72206e6f60448201526e3732bc34b9ba32b73a103a37b5b2b760891b60648201526084016104f2565b60006111c760408051602081019091526000815290565b905060008151116111e75760405180602001604052806000815250611212565b806111f184611b51565b604051602001611202929190612761565b6040516020818303038152906040525b9392505050565b600c546000906001600160a01b0316331461129c5760405162461bcd60e51b815260206004820152603760248201527f41727469636c65733a20746869732066756e6374696f6e206973206f6e6c792060448201527f63616c6c61626c6520627920526576696577732e736f6c00000000000000000060648201526084016104f2565b506000918252600e60209081526040832060090180546001808201835591855291909320015590565b6000818152600e60205260408120600401546001600160a01b03166112ec57506000919050565b506001919050565b600c546000906001600160a01b03161561136a5760405162461bcd60e51b815260206004820152603160248201527f41727469636c65733a20746869732066756e6374696f6e2069732063616c6c61604482015270626c65206f6e6c79206f6e652074696d6560781b60648201526084016104f2565b50600c80546001600160a01b039384166001600160a01b031991821617909155600d8054929093169116179055600190565b6113fd60405180610140016040528060001515815260200160008152602001600081526020016000815260200160006001600160a01b0316815260200160608152602001606081526020016060815260200160608152602001606081525090565b6000828152600e6020908152604091829020825161014081018452815460ff16151581526001820154928101929092526002810154928201929092526003820154606082015260048201546001600160a01b0316608082015260058201805491929160a08401919061146e90612b21565b80601f016020809104026020016040519081016040528092919081815260200182805461149a90612b21565b80156114e75780601f106114bc576101008083540402835291602001916114e7565b820191906000526020600020905b8154815290600101906020018083116114ca57829003601f168201915b5050505050815260200160068201805461150090612b21565b80601f016020809104026020016040519081016040528092919081815260200182805461152c90612b21565b80156115795780601f1061154e57610100808354040283529160200191611579565b820191906000526020600020905b81548152906001019060200180831161155c57829003601f168201915b50505050508152602001600782018054806020026020016040519081016040528092919081815260200182805480156115db57602002820191906000526020600020905b81546001600160a01b031681526001909101906020018083116115bd575b505050505081526020016008820180548060200260200160405190810160405280929190818152602001828054801561163357602002820191906000526020600020905b81548152602001906001019080831161161f575b505050505081526020016009820180548060200260200160405190810160405280929190818152602001828054801561168b57602002820191906000526020600020905b815481526020019060010190808311611677575b5050505050815250509050919050565b6000336001600160a01b0316600b60009054906101000a90046001600160a01b03166001600160a01b0316638da5cb5b6040518163ffffffff1660e01b815260040160206040518083038186803b1580156116f557600080fd5b505afa158015611709573d6000803e3d6000fd5b505050506040513d601f19601f8201168201806040525081019061172d9190612384565b6001600160a01b0316146117835760405162461bcd60e51b815260206004820152601e60248201527f55736572733a2063616c6c6572206973206e6f7420746865206f776e6572000060448201526064016104f2565b6000828152600e6020526040808220805460ff191660011790555183917fb59348a629b6f40de2edc7f4e49ad8fe33605eb7cfc9cbf226f7e9e4ecc86dec91a2506001919050565b60006001600160e01b0319821663780e9d6360e01b14806103e557506103e582611c4f565b600081815260046020526040902080546001600160a01b0319166001600160a01b038416908117909155819061182582610afd565b6001600160a01b03167f8c5be1e5ebec7d5bd14f71427d1e84f3dd0314c0f7b2291e5b200ac8c7c3b92560405160405180910390a45050565b6000818152600260205260408120546001600160a01b03166118d75760405162461bcd60e51b815260206004820152602c60248201527f4552433732313a206f70657261746f7220717565727920666f72206e6f6e657860448201526b34b9ba32b73a103a37b5b2b760a11b60648201526084016104f2565b60006118e283610afd565b9050806001600160a01b0316846001600160a01b0316148061191d5750836001600160a01b03166119128461047d565b6001600160a01b0316145b8061194d57506001600160a01b0380821660009081526005602090815260408083209388168352929052205460ff165b949350505050565b826001600160a01b031661196882610afd565b6001600160a01b0316146119d05760405162461bcd60e51b815260206004820152602960248201527f4552433732313a207472616e73666572206f6620746f6b656e2074686174206960448201526839903737ba1037bbb760b91b60648201526084016104f2565b6001600160a01b038216611a325760405162461bcd60e51b8152602060048201526024808201527f4552433732313a207472616e7366657220746f20746865207a65726f206164646044820152637265737360e01b60648201526084016104f2565b611a3d838383611c9f565b611a486000826117f0565b6001600160a01b0383166000908152600360205260408120805460019290611a71908490612ade565b90915550506001600160a01b0382166000908152600360205260408120805460019290611a9f908490612a73565b909155505060008181526002602052604080822080546001600160a01b0319166001600160a01b0386811691821790925591518493918716917fddf252ad1be2c89b69c2b068fc378daa952ba7f163c4a11628f55a4df523b3ef91a4505050565b611b1a828260405180602001604052806000815250611d2b565b5050565b611b29848484611955565b611b3584848484611d5e565b61112b5760405162461bcd60e51b81526004016104f2906127e0565b606081611b755750506040805180820190915260018152600360fc1b602082015290565b8160005b8115611b9f5780611b8981612b5c565b9150611b989050600a83612a8b565b9150611b79565b60008167ffffffffffffffff811115611bba57611bba612bf9565b6040519080825280601f01601f191660200182016040528015611be4576020820181803683370190505b5090505b841561194d57611bf9600183612ade565b9150611c06600a86612b77565b611c11906030612a73565b60f81b818381518110611c2657611c26612be3565b60200101906001600160f81b031916908160001a905350611c48600a86612a8b565b9450611be8565b60006001600160e01b031982166380ac58cd60e01b1480611c8057506001600160e01b03198216635b5e139f60e01b145b806103e557506301ffc9a760e01b6001600160e01b03198316146103e5565b611caa838383611e6b565b6001600160a01b0383161580611cc757506001600160a01b038216155b6106285760405162461bcd60e51b815260206004820152602f60248201527f41727469636c65733a2061727469636c657320746f6b656e7320617265206e6f60448201526e3a103a3930b739b332b930b136329760891b60648201526084016104f2565b611d358383611f23565b611d426000848484611d5e565b6106285760405162461bcd60e51b81526004016104f2906127e0565b60006001600160a01b0384163b15611e6057604051630a85bd0160e11b81526001600160a01b0385169063150b7a0290611da2903390899088908890600401612790565b602060405180830381600087803b158015611dbc57600080fd5b505af1925050508015611dec575060408051601f3d908101601f19168201909252611de99181019061262e565b60015b611e46573d808015611e1a576040519150601f19603f3d011682016040523d82523d6000602084013e611e1f565b606091505b508051611e3e5760405162461bcd60e51b81526004016104f2906127e0565b805181602001fd5b6001600160e01b031916630a85bd0160e11b14905061194d565b506001949350505050565b6001600160a01b038316611ec657611ec181600880546000838152600960205260408120829055600182018355919091527ff3f7a9fe364faab93b216da50a3214154f22a0a2b415b23a84c8169e8b636ee30155565b611ee9565b816001600160a01b0316836001600160a01b031614611ee957611ee98382612071565b6001600160a01b038216611f00576106288161210e565b826001600160a01b0316826001600160a01b0316146106285761062882826121bd565b6001600160a01b038216611f795760405162461bcd60e51b815260206004820181905260248201527f4552433732313a206d696e7420746f20746865207a65726f206164647265737360448201526064016104f2565b6000818152600260205260409020546001600160a01b031615611fde5760405162461bcd60e51b815260206004820152601c60248201527f4552433732313a20746f6b656e20616c7265616479206d696e7465640000000060448201526064016104f2565b611fea60008383611c9f565b6001600160a01b0382166000908152600360205260408120805460019290612013908490612a73565b909155505060008181526002602052604080822080546001600160a01b0319166001600160a01b03861690811790915590518392907fddf252ad1be2c89b69c2b068fc378daa952ba7f163c4a11628f55a4df523b3ef908290a45050565b6000600161207e84610b74565b6120889190612ade565b6000838152600760205260409020549091508082146120db576001600160a01b03841660009081526006602090815260408083208584528252808320548484528184208190558352600790915290208190555b5060009182526007602090815260408084208490556001600160a01b039094168352600681528383209183525290812055565b60085460009061212090600190612ade565b6000838152600960205260408120546008805493945090928490811061214857612148612be3565b90600052602060002001549050806008838154811061216957612169612be3565b60009182526020808320909101929092558281526009909152604080822084905585825281205560088054806121a1576121a1612bcd565b6001900381819060005260206000200160009055905550505050565b60006121c883610b74565b6001600160a01b039093166000908152600660209081526040808320868452825280832085905593825260079052919091209190915550565b828054828255906000526020600020908101928215612256579160200282015b8281111561225657825182546001600160a01b0319166001600160a01b03909116178255602090920191600190910190612221565b506122629291506122da565b5090565b82805461227290612b21565b90600052602060002090601f0160209004810192826122945760008555612256565b82601f106122ad57805160ff1916838001178555612256565b82800160010185558215612256579182015b828111156122565782518255916020019190600101906122bf565b5b8082111561226257600081556001016122db565b600067ffffffffffffffff83111561230957612309612bf9565b61231c601f8401601f1916602001612a01565b905082815283838301111561233057600080fd5b828260208301376000602084830101529392505050565b600082601f83011261235857600080fd5b611212838335602085016122ef565b60006020828403121561237957600080fd5b813561121281612c0f565b60006020828403121561239657600080fd5b815161121281612c0f565b600080604083850312156123b457600080fd5b82356123bf81612c0f565b915060208301356123cf81612c0f565b809150509250929050565b6000806000606084860312156123ef57600080fd5b83356123fa81612c0f565b9250602084013561240a81612c0f565b929592945050506040919091013590565b6000806000806080858703121561243157600080fd5b843561243c81612c0f565b9350602085013561244c81612c0f565b925060408501359150606085013567ffffffffffffffff81111561246f57600080fd5b8501601f8101871361248057600080fd5b61248f878235602084016122ef565b91505092959194509250565b600080604083850312156124ae57600080fd5b82356124b981612c0f565b915060208301356123cf81612c27565b600080604083850312156124dc57600080fd5b82356124e781612c0f565b946020939093013593505050565b60008060006060848603121561250a57600080fd5b833567ffffffffffffffff8082111561252257600080fd5b818601915086601f83011261253657600080fd5b813560208282111561254a5761254a612bf9565b8160051b612559828201612a01565b8381528281019086840183880185018d101561257457600080fd5b600097505b858810156125a3578035935061258e84612c0f565b83835260019790970196918401918401612579565b5098505050870135925050808211156125bb57600080fd5b6125c787838801612347565b935060408601359150808211156125dd57600080fd5b506125ea86828701612347565b9150509250925092565b60006020828403121561260657600080fd5b815161121281612c27565b60006020828403121561262357600080fd5b813561121281612c35565b60006020828403121561264057600080fd5b815161121281612c35565b6000806040838503121561265e57600080fd5b8235600281106124e757600080fd5b60006020828403121561267f57600080fd5b5035919050565b60006020828403121561269857600080fd5b5051919050565b600080604083850312156126b257600080fd5b50508035926020909101359150565b600081518084526020808501945080840160005b838110156126fa5781516001600160a01b0316875295820195908201906001016126d5565b509495945050505050565b600081518084526020808501945080840160005b838110156126fa57815187529582019590820190600101612719565b6000815180845261274d816020860160208601612af5565b601f01601f19169290920160200192915050565b60008351612773818460208801612af5565b835190830190612787818360208801612af5565b01949350505050565b6001600160a01b03858116825284166020820152604081018390526080606082018190526000906127c390830184612735565b9695505050505050565b6020815260006112126020830184612735565b60208082526032908201527f4552433732313a207472616e7366657220746f206e6f6e20455243373231526560408201527131b2b4bb32b91034b6b83632b6b2b73a32b960711b606082015260800190565b60208082526030908201527f55736572733a20796f75206d75737420626520617070726f76656420746f207560408201526f39b2903a3434b9903332b0ba3ab9329760811b606082015260800190565b6020808252602c908201527f41727469636c65733a2063616e6e6f7420766f7465206f6e20696e657869737460408201526b30b73a1020b93a34b1b6329760a11b606082015260800190565b60208082526031908201527f4552433732313a207472616e736665722063616c6c6572206973206e6f74206f6040820152701ddb995c881b9bdc88185c1c1c9bdd9959607a1b606082015260800190565b6020815261293260208201835115159052565b6020820151604082015260408201516060820152606082015160808201526000608083015161296c60a08401826001600160a01b03169052565b5060a08301516101408060c0850152612989610160850183612735565b915060c0850151601f19808685030160e08701526129a78483612735565b935060e087015191506101008187860301818801526129c685846126c1565b9450808801519250506101208187860301818801526129e58584612705565b9088015187820390920184880152935090506127c38382612705565b604051601f8201601f1916810167ffffffffffffffff81118282101715612a2a57612a2a612bf9565b604052919050565b600080821280156001600160ff1b0384900385131615612a5457612a54612b8b565b600160ff1b8390038412811615612a6d57612a6d612b8b565b50500190565b60008219821115612a8657612a86612b8b565b500190565b600082612a9a57612a9a612ba1565b500490565b60008083128015600160ff1b850184121615612abd57612abd612b8b565b6001600160ff1b0384018313811615612ad857612ad8612b8b565b50500390565b600082821015612af057612af0612b8b565b500390565b60005b83811015612b10578181015183820152602001612af8565b8381111561112b5750506000910152565b600181811c90821680612b3557607f821691505b60208210811415612b5657634e487b7160e01b600052602260045260246000fd5b50919050565b6000600019821415612b7057612b70612b8b565b5060010190565b600082612b8657612b86612ba1565b500690565b634e487b7160e01b600052601160045260246000fd5b634e487b7160e01b600052601260045260246000fd5b634e487b7160e01b600052602160045260246000fd5b634e487b7160e01b600052603160045260246000fd5b634e487b7160e01b600052603260045260246000fd5b634e487b7160e01b600052604160045260246000fd5b6001600160a01b0381168114612c2457600080fd5b50565b8015158114612c2457600080fd5b6001600160e01b031981168114612c2457600080fdfea2646970667358221220779695606f25d670db9c7ed4db45e148fb2bf8df21af7d615aa6429645a82d0b64736f6c63430008070033",
    "sourcePath": "/home/jonny/Documents/COSCIENCE/coscience-poc-hardhat/contracts/Articles.sol",
    "compiler": {
        "name": "solc",
        "version": "0.8.7+commit.e28d00a7"
    },
    "functionHashes": {
        "approve(address,uint256)": "095ea7b3",
        "articleInfo(uint256)": "da6c5ea4",
        "balanceOf(address)": "70a08231",
        "banArticle(uint256)": "f7be34be",
        "commentsAddress()": "290a2191",
        "fillCommentsArray(uint256,uint256)": "25a7c03d",
        "fillReviewsArray(uint256,uint256)": "d1cbbe8f",
        "getApproved(uint256)": "081812fc",
        "isApprovedForAll(address,address)": "e985e9c5",
        "isArticle(uint256)": "d833e176",
        "name()": "06fdde03",
        "ownerOf(uint256)": "6352211e",
        "publish(address[],string,string)": "98f7757e",
        "safeTransferFrom(address,address,uint256)": "42842e0e",
        "safeTransferFrom(address,address,uint256,bytes)": "b88d4fde",
        "setApprovalForAll(address,bool)": "a22cb465",
        "setContracts(address,address)": "d8952a49",
        "supportsInterface(bytes4)": "01ffc9a7",
        "symbol()": "95d89b41",
        "tokenByIndex(uint256)": "4f6ccce7",
        "tokenOfOwnerByIndex(address,uint256)": "2f745c59",
        "tokenURI(uint256)": "c87b56dd",
        "totalSupply()": "18160ddd",
        "transferFrom(address,address,uint256)": "23b872dd",
        "voteImportance(uint8,uint256)": "799ac390",
        "voteValidity(uint8,uint256)": "1c56bf28"
    },
    "gasEstimates": {
        "creation": {
            "codeDepositCost": "2278600",
            "executionCost": "infinite",
            "totalCost": "infinite"
        },
        "external": {
            "approve(address,uint256)": "infinite",
            "articleInfo(uint256)": "infinite",
            "balanceOf(address)": "2606",
            "banArticle(uint256)": "infinite",
            "commentsAddress()": "2421",
            "fillCommentsArray(uint256,uint256)": "48971",
            "fillReviewsArray(uint256,uint256)": "48970",
            "getApproved(uint256)": "4760",
            "isApprovedForAll(address,address)": "infinite",
            "isArticle(uint256)": "2582",
            "name()": "infinite",
            "ownerOf(uint256)": "2667",
            "publish(address[],string,string)": "infinite",
            "safeTransferFrom(address,address,uint256)": "infinite",
            "safeTransferFrom(address,address,uint256,bytes)": "infinite",
            "setApprovalForAll(address,bool)": "infinite",
            "setContracts(address,address)": "infinite",
            "supportsInterface(bytes4)": "infinite",
            "symbol()": "infinite",
            "tokenByIndex(uint256)": "6804",
            "tokenOfOwnerByIndex(address,uint256)": "4969",
            "tokenURI(uint256)": "infinite",
            "totalSupply()": "2393",
            "transferFrom(address,address,uint256)": "infinite",
            "voteImportance(uint8,uint256)": "infinite",
            "voteValidity(uint8,uint256)": "infinite"
        },
        "internal": {
            "_beforeTokenTransfer(address,address,uint256)": "infinite",
            "_burn(uint256)": "infinite"
        }
    }
}